{
  "address": "0x1761C859C6ecdD313d4a628B039d6d4219D5f96E",
  "abi": [
    {
      "inputs": [],
      "stateMutability": "nonpayable",
      "type": "constructor"
    },
    {
      "anonymous": false,
      "inputs": [
        {
          "indexed": true,
          "internalType": "address",
          "name": "owner",
          "type": "address"
        },
        {
          "indexed": true,
          "internalType": "address",
          "name": "approved",
          "type": "address"
        },
        {
          "indexed": true,
          "internalType": "uint256",
          "name": "tokenId",
          "type": "uint256"
        }
      ],
      "name": "Approval",
      "type": "event"
    },
    {
      "anonymous": false,
      "inputs": [
        {
          "indexed": true,
          "internalType": "address",
          "name": "owner",
          "type": "address"
        },
        {
          "indexed": true,
          "internalType": "address",
          "name": "operator",
          "type": "address"
        },
        {
          "indexed": false,
          "internalType": "bool",
          "name": "approved",
          "type": "bool"
        }
      ],
      "name": "ApprovalForAll",
      "type": "event"
    },
    {
      "anonymous": false,
      "inputs": [
        {
          "indexed": true,
          "internalType": "uint256",
          "name": "tokenId",
          "type": "uint256"
        },
        {
          "indexed": false,
          "internalType": "string",
          "name": "tokenURI",
          "type": "string"
        }
      ],
      "name": "CreateSVGNFT",
      "type": "event"
    },
    {
      "anonymous": false,
      "inputs": [
        {
          "indexed": true,
          "internalType": "address",
          "name": "from",
          "type": "address"
        },
        {
          "indexed": true,
          "internalType": "address",
          "name": "to",
          "type": "address"
        },
        {
          "indexed": true,
          "internalType": "uint256",
          "name": "tokenId",
          "type": "uint256"
        }
      ],
      "name": "Transfer",
      "type": "event"
    },
    {
      "inputs": [
        {
          "internalType": "address",
          "name": "to",
          "type": "address"
        },
        {
          "internalType": "uint256",
          "name": "tokenId",
          "type": "uint256"
        }
      ],
      "name": "approve",
      "outputs": [],
      "stateMutability": "nonpayable",
      "type": "function"
    },
    {
      "inputs": [
        {
          "internalType": "address",
          "name": "owner",
          "type": "address"
        }
      ],
      "name": "balanceOf",
      "outputs": [
        {
          "internalType": "uint256",
          "name": "",
          "type": "uint256"
        }
      ],
      "stateMutability": "view",
      "type": "function"
    },
    {
      "inputs": [
        {
          "internalType": "string",
          "name": "_svg",
          "type": "string"
        }
      ],
      "name": "create",
      "outputs": [],
      "stateMutability": "nonpayable",
      "type": "function"
    },
    {
      "inputs": [
        {
          "internalType": "string",
          "name": "imageURI",
          "type": "string"
        }
      ],
      "name": "formatTokenURI",
      "outputs": [
        {
          "internalType": "string",
          "name": "",
          "type": "string"
        }
      ],
      "stateMutability": "pure",
      "type": "function"
    },
    {
      "inputs": [
        {
          "internalType": "uint256",
          "name": "tokenId",
          "type": "uint256"
        }
      ],
      "name": "getApproved",
      "outputs": [
        {
          "internalType": "address",
          "name": "",
          "type": "address"
        }
      ],
      "stateMutability": "view",
      "type": "function"
    },
    {
      "inputs": [
        {
          "internalType": "address",
          "name": "owner",
          "type": "address"
        },
        {
          "internalType": "address",
          "name": "operator",
          "type": "address"
        }
      ],
      "name": "isApprovedForAll",
      "outputs": [
        {
          "internalType": "bool",
          "name": "",
          "type": "bool"
        }
      ],
      "stateMutability": "view",
      "type": "function"
    },
    {
      "inputs": [],
      "name": "name",
      "outputs": [
        {
          "internalType": "string",
          "name": "",
          "type": "string"
        }
      ],
      "stateMutability": "view",
      "type": "function"
    },
    {
      "inputs": [
        {
          "internalType": "uint256",
          "name": "tokenId",
          "type": "uint256"
        }
      ],
      "name": "ownerOf",
      "outputs": [
        {
          "internalType": "address",
          "name": "",
          "type": "address"
        }
      ],
      "stateMutability": "view",
      "type": "function"
    },
    {
      "inputs": [
        {
          "internalType": "address",
          "name": "from",
          "type": "address"
        },
        {
          "internalType": "address",
          "name": "to",
          "type": "address"
        },
        {
          "internalType": "uint256",
          "name": "tokenId",
          "type": "uint256"
        }
      ],
      "name": "safeTransferFrom",
      "outputs": [],
      "stateMutability": "nonpayable",
      "type": "function"
    },
    {
      "inputs": [
        {
          "internalType": "address",
          "name": "from",
          "type": "address"
        },
        {
          "internalType": "address",
          "name": "to",
          "type": "address"
        },
        {
          "internalType": "uint256",
          "name": "tokenId",
          "type": "uint256"
        },
        {
          "internalType": "bytes",
          "name": "_data",
          "type": "bytes"
        }
      ],
      "name": "safeTransferFrom",
      "outputs": [],
      "stateMutability": "nonpayable",
      "type": "function"
    },
    {
      "inputs": [
        {
          "internalType": "address",
          "name": "operator",
          "type": "address"
        },
        {
          "internalType": "bool",
          "name": "approved",
          "type": "bool"
        }
      ],
      "name": "setApprovalForAll",
      "outputs": [],
      "stateMutability": "nonpayable",
      "type": "function"
    },
    {
      "inputs": [
        {
          "internalType": "bytes4",
          "name": "interfaceId",
          "type": "bytes4"
        }
      ],
      "name": "supportsInterface",
      "outputs": [
        {
          "internalType": "bool",
          "name": "",
          "type": "bool"
        }
      ],
      "stateMutability": "view",
      "type": "function"
    },
    {
      "inputs": [
        {
          "internalType": "string",
          "name": "_svg",
          "type": "string"
        }
      ],
      "name": "svgToImageURI",
      "outputs": [
        {
          "internalType": "string",
          "name": "",
          "type": "string"
        }
      ],
      "stateMutability": "pure",
      "type": "function"
    },
    {
      "inputs": [],
      "name": "symbol",
      "outputs": [
        {
          "internalType": "string",
          "name": "",
          "type": "string"
        }
      ],
      "stateMutability": "view",
      "type": "function"
    },
    {
      "inputs": [
        {
          "internalType": "uint256",
          "name": "tokenId",
          "type": "uint256"
        }
      ],
      "name": "tokenURI",
      "outputs": [
        {
          "internalType": "string",
          "name": "",
          "type": "string"
        }
      ],
      "stateMutability": "view",
      "type": "function"
    },
    {
      "inputs": [
        {
          "internalType": "address",
          "name": "from",
          "type": "address"
        },
        {
          "internalType": "address",
          "name": "to",
          "type": "address"
        },
        {
          "internalType": "uint256",
          "name": "tokenId",
          "type": "uint256"
        }
      ],
      "name": "transferFrom",
      "outputs": [],
      "stateMutability": "nonpayable",
      "type": "function"
    }
  ],
  "transactionHash": "0x73d76c839f0d9ef5e7cb0ba6661ec50b1776af27d70707eaab571e2400a7fb4c",
  "args": [],
  "solcInputHash": "3b1588a4b8e3f2e637b6258ab045d8ba",
  "bytecode": "0x60806040523480156200001157600080fd5b506040518060400160405280600781526020017f535647204e4654000000000000000000000000000000000000000000000000008152506040518060400160405280600681526020017f7376674e46540000000000000000000000000000000000000000000000000000815250816000908051906020019062000096929190620000b8565b508060019080519060200190620000af929190620000b8565b505050620001cd565b828054620000c69062000168565b90600052602060002090601f016020900481019282620000ea576000855562000136565b82601f106200010557805160ff191683800117855562000136565b8280016001018555821562000136579182015b828111156200013557825182559160200191906001019062000118565b5b50905062000145919062000149565b5090565b5b80821115620001645760008160009055506001016200014a565b5090565b600060028204905060018216806200018157607f821691505b602082108114156200019857620001976200019e565b5b50919050565b7f4e487b7100000000000000000000000000000000000000000000000000000000600052602260045260246000fd5b61318f80620001dd6000396000f3fe608060405234801561001057600080fd5b50600436106101005760003560e01c806370a0823111610097578063b6a46b3b11610066578063b6a46b3b146102d1578063b88d4fde146102ed578063c87b56dd14610309578063e985e9c51461033957610100565b806370a082311461023757806371aee1931461026757806395d89b4114610297578063a22cb465146102b557610100565b806323b872dd116100d357806323b872dd1461019f57806330d871c6146101bb57806342842e0e146101eb5780636352211e1461020757610100565b806301ffc9a71461010557806306fdde0314610135578063081812fc14610153578063095ea7b314610183575b600080fd5b61011f600480360381019061011a9190611fb1565b610369565b60405161012c91906124de565b60405180910390f35b61013d61044b565b60405161014a91906124f9565b60405180910390f35b61016d60048036038101906101689190612044565b6104dd565b60405161017a9190612477565b60405180910390f35b61019d60048036038101906101989190611f75565b610562565b005b6101b960048036038101906101b49190611e6f565b61067a565b005b6101d560048036038101906101d09190612003565b6106da565b6040516101e291906124f9565b60405180910390f35b61020560048036038101906102009190611e6f565b610773565b005b610221600480360381019061021c9190612044565b610793565b60405161022e9190612477565b60405180910390f35b610251600480360381019061024c9190611e0a565b610845565b60405161025e919061271b565b60405180910390f35b610281600480360381019061027c9190612003565b6108fd565b60405161028e91906124f9565b60405180910390f35b61029f61098a565b6040516102ac91906124f9565b60405180910390f35b6102cf60048036038101906102ca9190611f39565b610a1c565b005b6102eb60048036038101906102e69190612003565b610b9d565b005b61030760048036038101906103029190611ebe565b610c21565b005b610323600480360381019061031e9190612044565b610c83565b60405161033091906124f9565b60405180910390f35b610353600480360381019061034e9190611e33565b610dd5565b60405161036091906124de565b60405180910390f35b60007f80ac58cd000000000000000000000000000000000000000000000000000000007bffffffffffffffffffffffffffffffffffffffffffffffffffffffff1916827bffffffffffffffffffffffffffffffffffffffffffffffffffffffff1916148061043457507f5b5e139f000000000000000000000000000000000000000000000000000000007bffffffffffffffffffffffffffffffffffffffffffffffffffffffff1916827bffffffffffffffffffffffffffffffffffffffffffffffffffffffff1916145b80610444575061044382610e69565b5b9050919050565b60606000805461045a906129cb565b80601f0160208091040260200160405190810160405280929190818152602001828054610486906129cb565b80156104d35780601f106104a8576101008083540402835291602001916104d3565b820191906000526020600020905b8154815290600101906020018083116104b657829003601f168201915b5050505050905090565b60006104e882610ed3565b610527576040517f08c379a000000000000000000000000000000000000000000000000000000000815260040161051e9061267b565b60405180910390fd5b6004600083815260200190815260200160002060009054906101000a900473ffffffffffffffffffffffffffffffffffffffff169050919050565b600061056d82610793565b90508073ffffffffffffffffffffffffffffffffffffffff168373ffffffffffffffffffffffffffffffffffffffff1614156105de576040517f08c379a00000000000000000000000000000000000000000000000000000000081526004016105d5906126db565b60405180910390fd5b8073ffffffffffffffffffffffffffffffffffffffff166105fd610f3f565b73ffffffffffffffffffffffffffffffffffffffff16148061062c575061062b81610626610f3f565b610dd5565b5b61066b576040517f08c379a0000000000000000000000000000000000000000000000000000000008152600401610662906125bb565b60405180910390fd5b6106758383610f47565b505050565b61068b610685610f3f565b82611000565b6106ca576040517f08c379a00000000000000000000000000000000000000000000000000000000081526004016106c1906126fb565b60405180910390fd5b6106d58383836110de565b505050565b606060006040518060400160405280601a81526020017f646174613a696d6167652f7376672b786d6c3b6261736536342c000000000000815250905060006107408460405160200161072c91906123f9565b60405160208183030381529060405261133a565b905060008282604051602001610757929190612410565b6040516020818303038152906040529050809350505050919050565b61078e83838360405180602001604052806000815250610c21565b505050565b6000806002600084815260200190815260200160002060009054906101000a900473ffffffffffffffffffffffffffffffffffffffff169050600073ffffffffffffffffffffffffffffffffffffffff168173ffffffffffffffffffffffffffffffffffffffff16141561083c576040517f08c379a0000000000000000000000000000000000000000000000000000000008152600401610833906125fb565b60405180910390fd5b80915050919050565b60008073ffffffffffffffffffffffffffffffffffffffff168273ffffffffffffffffffffffffffffffffffffffff1614156108b6576040517f08c379a00000000000000000000000000000000000000000000000000000000081526004016108ad906125db565b60405180910390fd5b600360008373ffffffffffffffffffffffffffffffffffffffff1673ffffffffffffffffffffffffffffffffffffffff168152602001908152602001600020549050919050565b606060006040518060400160405280601d81526020017f646174613a6170706c69636174696f6e2f6a736f6e3b6261736536342c0000008152509050806109628460405160200161094e9190612434565b60405160208183030381529060405261133a565b604051602001610973929190612410565b604051602081830303815290604052915050919050565b606060018054610999906129cb565b80601f01602080910402602001604051908101604052809291908181526020018280546109c5906129cb565b8015610a125780601f106109e757610100808354040283529160200191610a12565b820191906000526020600020905b8154815290600101906020018083116109f557829003601f168201915b5050505050905090565b610a24610f3f565b73ffffffffffffffffffffffffffffffffffffffff168273ffffffffffffffffffffffffffffffffffffffff161415610a92576040517f08c379a0000000000000000000000000000000000000000000000000000000008152600401610a899061257b565b60405180910390fd5b8060056000610a9f610f3f565b73ffffffffffffffffffffffffffffffffffffffff1673ffffffffffffffffffffffffffffffffffffffff16815260200190815260200160002060008473ffffffffffffffffffffffffffffffffffffffff1673ffffffffffffffffffffffffffffffffffffffff16815260200190815260200160002060006101000a81548160ff0219169083151502179055508173ffffffffffffffffffffffffffffffffffffffff16610b4c610f3f565b73ffffffffffffffffffffffffffffffffffffffff167f17307eab39ab6107e8899845ad3d59bd9653f200f220920489ca2b5937696c3183604051610b9191906124de565b60405180910390a35050565b6000610ba960076114d9565b9050610bb533826114e7565b6000610bc0836106da565b90506000610bcd826108fd565b9050610bd98382611505565b610be36007611579565b827fe11a3774b7d072913f405e8ee273b13461fdc2b88d5b8eb679837ae65508e46c82604051610c1391906124f9565b60405180910390a250505050565b610c32610c2c610f3f565b83611000565b610c71576040517f08c379a0000000000000000000000000000000000000000000000000000000008152600401610c68906126fb565b60405180910390fd5b610c7d8484848461158f565b50505050565b6060610c8e82610ed3565b610ccd576040517f08c379a0000000000000000000000000000000000000000000000000000000008152600401610cc49061265b565b60405180910390fd5b6000600660008481526020019081526020016000208054610ced906129cb565b80601f0160208091040260200160405190810160405280929190818152602001828054610d19906129cb565b8015610d665780601f10610d3b57610100808354040283529160200191610d66565b820191906000526020600020905b815481529060010190602001808311610d4957829003601f168201915b505050505090506000610d776115eb565b9050600081511415610d8d578192505050610dd0565b600082511115610dc2578082604051602001610daa929190612410565b60405160208183030381529060405292505050610dd0565b610dcb84611602565b925050505b919050565b6000600560008473ffffffffffffffffffffffffffffffffffffffff1673ffffffffffffffffffffffffffffffffffffffff16815260200190815260200160002060008373ffffffffffffffffffffffffffffffffffffffff1673ffffffffffffffffffffffffffffffffffffffff16815260200190815260200160002060009054906101000a900460ff16905092915050565b60007f01ffc9a7000000000000000000000000000000000000000000000000000000007bffffffffffffffffffffffffffffffffffffffffffffffffffffffff1916827bffffffffffffffffffffffffffffffffffffffffffffffffffffffff1916149050919050565b60008073ffffffffffffffffffffffffffffffffffffffff166002600084815260200190815260200160002060009054906101000a900473ffffffffffffffffffffffffffffffffffffffff1673ffffffffffffffffffffffffffffffffffffffff1614159050919050565b600033905090565b816004600083815260200190815260200160002060006101000a81548173ffffffffffffffffffffffffffffffffffffffff021916908373ffffffffffffffffffffffffffffffffffffffff160217905550808273ffffffffffffffffffffffffffffffffffffffff16610fba83610793565b73ffffffffffffffffffffffffffffffffffffffff167f8c5be1e5ebec7d5bd14f71427d1e84f3dd0314c0f7b2291e5b200ac8c7c3b92560405160405180910390a45050565b600061100b82610ed3565b61104a576040517f08c379a00000000000000000000000000000000000000000000000000000000081526004016110419061259b565b60405180910390fd5b600061105583610793565b90508073ffffffffffffffffffffffffffffffffffffffff168473ffffffffffffffffffffffffffffffffffffffff1614806110c457508373ffffffffffffffffffffffffffffffffffffffff166110ac846104dd565b73ffffffffffffffffffffffffffffffffffffffff16145b806110d557506110d48185610dd5565b5b91505092915050565b8273ffffffffffffffffffffffffffffffffffffffff166110fe82610793565b73ffffffffffffffffffffffffffffffffffffffff1614611154576040517f08c379a000000000000000000000000000000000000000000000000000000000815260040161114b9061269b565b60405180910390fd5b600073ffffffffffffffffffffffffffffffffffffffff168273ffffffffffffffffffffffffffffffffffffffff1614156111c4576040517f08c379a00000000000000000000000000000000000000000000000000000000081526004016111bb9061255b565b60405180910390fd5b6111cf8383836116a9565b6111da600082610f47565b6001600360008573ffffffffffffffffffffffffffffffffffffffff1673ffffffffffffffffffffffffffffffffffffffff168152602001908152602001600020600082825461122a91906128e1565b925050819055506001600360008473ffffffffffffffffffffffffffffffffffffffff1673ffffffffffffffffffffffffffffffffffffffff16815260200190815260200160002060008282546112819190612800565b92505081905550816002600083815260200190815260200160002060006101000a81548173ffffffffffffffffffffffffffffffffffffffff021916908373ffffffffffffffffffffffffffffffffffffffff160217905550808273ffffffffffffffffffffffffffffffffffffffff168473ffffffffffffffffffffffffffffffffffffffff167fddf252ad1be2c89b69c2b068fc378daa952ba7f163c4a11628f55a4df523b3ef60405160405180910390a4505050565b606060008251141561135d576040518060200160405280600081525090506114d4565b600060405180606001604052806040815260200161311a604091399050600060036002855161138c9190612800565b6113969190612856565b60046113a29190612887565b905060006020826113b39190612800565b67ffffffffffffffff8111156113f2577f4e487b7100000000000000000000000000000000000000000000000000000000600052604160045260246000fd5b6040519080825280601f01601f1916602001820160405280156114245781602001600182028036833780820191505090505b509050818152600183018586518101602084015b81831015611493576003830192508251603f8160121c168501518253600182019150603f81600c1c168501518253600182019150603f8160061c168501518253600182019150603f8116850151825360018201915050611438565b6003895106600181146114ad57600281146114bd576114c8565b613d3d60f01b60028303526114c8565b603d60f81b60018303525b50505050508093505050505b919050565b600081600001549050919050565b6115018282604051806020016040528060008152506116ae565b5050565b61150e82610ed3565b61154d576040517f08c379a00000000000000000000000000000000000000000000000000000000081526004016115449061261b565b60405180910390fd5b80600660008481526020019081526020016000209080519060200190611574929190611c2e565b505050565b6001816000016000828254019250508190555050565b61159a8484846110de565b6115a684848484611709565b6115e5576040517f08c379a00000000000000000000000000000000000000000000000000000000081526004016115dc9061251b565b60405180910390fd5b50505050565b606060405180602001604052806000815250905090565b606061160d82610ed3565b61164c576040517f08c379a0000000000000000000000000000000000000000000000000000000008152600401611643906126bb565b60405180910390fd5b60006116566115eb565b9050600081511161167657604051806020016040528060008152506116a1565b80611680846118a0565b604051602001611691929190612410565b6040516020818303038152906040525b915050919050565b505050565b6116b88383611a4d565b6116c56000848484611709565b611704576040517f08c379a00000000000000000000000000000000000000000000000000000000081526004016116fb9061251b565b60405180910390fd5b505050565b600061172a8473ffffffffffffffffffffffffffffffffffffffff16611c1b565b15611893578373ffffffffffffffffffffffffffffffffffffffff1663150b7a02611753610f3f565b8786866040518563ffffffff1660e01b81526004016117759493929190612492565b602060405180830381600087803b15801561178f57600080fd5b505af19250505080156117c057506040513d601f19601f820116820180604052508101906117bd9190611fda565b60015b611843573d80600081146117f0576040519150601f19603f3d011682016040523d82523d6000602084013e6117f5565b606091505b5060008151141561183b576040517f08c379a00000000000000000000000000000000000000000000000000000000081526004016118329061251b565b60405180910390fd5b805181602001fd5b63150b7a0260e01b7bffffffffffffffffffffffffffffffffffffffffffffffffffffffff1916817bffffffffffffffffffffffffffffffffffffffffffffffffffffffff191614915050611898565b600190505b949350505050565b606060008214156118e8576040518060400160405280600181526020017f30000000000000000000000000000000000000000000000000000000000000008152509050611a48565b600082905060005b6000821461191a57808061190390612a2e565b915050600a826119139190612856565b91506118f0565b60008167ffffffffffffffff81111561195c577f4e487b7100000000000000000000000000000000000000000000000000000000600052604160045260246000fd5b6040519080825280601f01601f19166020018201604052801561198e5781602001600182028036833780820191505090505b5090505b60008514611a41576001826119a791906128e1565b9150600a856119b69190612a77565b60306119c29190612800565b60f81b8183815181106119fe577f4e487b7100000000000000000000000000000000000000000000000000000000600052603260045260246000fd5b60200101907effffffffffffffffffffffffffffffffffffffffffffffffffffffffffffff1916908160001a905350600a85611a3a9190612856565b9450611992565b8093505050505b919050565b600073ffffffffffffffffffffffffffffffffffffffff168273ffffffffffffffffffffffffffffffffffffffff161415611abd576040517f08c379a0000000000000000000000000000000000000000000000000000000008152600401611ab49061263b565b60405180910390fd5b611ac681610ed3565b15611b06576040517f08c379a0000000000000000000000000000000000000000000000000000000008152600401611afd9061253b565b60405180910390fd5b611b12600083836116a9565b6001600360008473ffffffffffffffffffffffffffffffffffffffff1673ffffffffffffffffffffffffffffffffffffffff1681526020019081526020016000206000828254611b629190612800565b92505081905550816002600083815260200190815260200160002060006101000a81548173ffffffffffffffffffffffffffffffffffffffff021916908373ffffffffffffffffffffffffffffffffffffffff160217905550808273ffffffffffffffffffffffffffffffffffffffff16600073ffffffffffffffffffffffffffffffffffffffff167fddf252ad1be2c89b69c2b068fc378daa952ba7f163c4a11628f55a4df523b3ef60405160405180910390a45050565b600080823b905060008111915050919050565b828054611c3a906129cb565b90600052602060002090601f016020900481019282611c5c5760008555611ca3565b82601f10611c7557805160ff1916838001178555611ca3565b82800160010185558215611ca3579182015b82811115611ca2578251825591602001919060010190611c87565b5b509050611cb09190611cb4565b5090565b5b80821115611ccd576000816000905550600101611cb5565b5090565b6000611ce4611cdf8461275b565b612736565b905082815260208101848484011115611cfc57600080fd5b611d07848285612989565b509392505050565b6000611d22611d1d8461278c565b612736565b905082815260208101848484011115611d3a57600080fd5b611d45848285612989565b509392505050565b600081359050611d5c816130bd565b92915050565b600081359050611d71816130d4565b92915050565b600081359050611d86816130eb565b92915050565b600081519050611d9b816130eb565b92915050565b600082601f830112611db257600080fd5b8135611dc2848260208601611cd1565b91505092915050565b600082601f830112611ddc57600080fd5b8135611dec848260208601611d0f565b91505092915050565b600081359050611e0481613102565b92915050565b600060208284031215611e1c57600080fd5b6000611e2a84828501611d4d565b91505092915050565b60008060408385031215611e4657600080fd5b6000611e5485828601611d4d565b9250506020611e6585828601611d4d565b9150509250929050565b600080600060608486031215611e8457600080fd5b6000611e9286828701611d4d565b9350506020611ea386828701611d4d565b9250506040611eb486828701611df5565b9150509250925092565b60008060008060808587031215611ed457600080fd5b6000611ee287828801611d4d565b9450506020611ef387828801611d4d565b9350506040611f0487828801611df5565b925050606085013567ffffffffffffffff811115611f2157600080fd5b611f2d87828801611da1565b91505092959194509250565b60008060408385031215611f4c57600080fd5b6000611f5a85828601611d4d565b9250506020611f6b85828601611d62565b9150509250929050565b60008060408385031215611f8857600080fd5b6000611f9685828601611d4d565b9250506020611fa785828601611df5565b9150509250929050565b600060208284031215611fc357600080fd5b6000611fd184828501611d77565b91505092915050565b600060208284031215611fec57600080fd5b6000611ffa84828501611d8c565b91505092915050565b60006020828403121561201557600080fd5b600082013567ffffffffffffffff81111561202f57600080fd5b61203b84828501611dcb565b91505092915050565b60006020828403121561205657600080fd5b600061206484828501611df5565b91505092915050565b61207681612915565b82525050565b61208581612927565b82525050565b6000612096826127bd565b6120a081856127d3565b93506120b0818560208601612998565b6120b981612b64565b840191505092915050565b60006120cf826127c8565b6120d981856127e4565b93506120e9818560208601612998565b6120f281612b64565b840191505092915050565b6000612108826127c8565b61211281856127f5565b9350612122818560208601612998565b80840191505092915050565b600061213b6032836127e4565b915061214682612b75565b604082019050919050565b600061215e601c836127e4565b915061216982612bc4565b602082019050919050565b60006121816024836127e4565b915061218c82612bed565b604082019050919050565b60006121a46019836127e4565b91506121af82612c3c565b602082019050919050565b60006121c7602c836127e4565b91506121d282612c65565b604082019050919050565b60006121ea6038836127e4565b91506121f582612cb4565b604082019050919050565b600061220d602a836127e4565b915061221882612d03565b604082019050919050565b60006122306029836127e4565b915061223b82612d52565b604082019050919050565b6000612253602e836127e4565b915061225e82612da1565b604082019050919050565b6000612276601c836127f5565b915061228182612df0565b601c82019050919050565b60006122996026836127f5565b91506122a482612e19565b602682019050919050565b60006122bc6013836127f5565b91506122c782612e68565b601382019050919050565b60006122df6020836127e4565b91506122ea82612e91565b602082019050919050565b60006123026031836127e4565b915061230d82612eba565b604082019050919050565b6000612325602c836127e4565b915061233082612f09565b604082019050919050565b60006123486029836127e4565b915061235382612f58565b604082019050919050565b600061236b602f836127e4565b915061237682612fa7565b604082019050919050565b600061238e6021836127e4565b915061239982612ff6565b604082019050919050565b60006123b16031836127e4565b91506123bc82613045565b604082019050919050565b60006123d46003836127f5565b91506123df82613094565b600382019050919050565b6123f38161297f565b82525050565b600061240582846120fd565b915081905092915050565b600061241c82856120fd565b915061242882846120fd565b91508190509392505050565b600061243f826122af565b915061244a8261228c565b915061245582612269565b915061246182846120fd565b915061246c826123c7565b915081905092915050565b600060208201905061248c600083018461206d565b92915050565b60006080820190506124a7600083018761206d565b6124b4602083018661206d565b6124c160408301856123ea565b81810360608301526124d3818461208b565b905095945050505050565b60006020820190506124f3600083018461207c565b92915050565b6000602082019050818103600083015261251381846120c4565b905092915050565b600060208201905081810360008301526125348161212e565b9050919050565b6000602082019050818103600083015261255481612151565b9050919050565b6000602082019050818103600083015261257481612174565b9050919050565b6000602082019050818103600083015261259481612197565b9050919050565b600060208201905081810360008301526125b4816121ba565b9050919050565b600060208201905081810360008301526125d4816121dd565b9050919050565b600060208201905081810360008301526125f481612200565b9050919050565b6000602082019050818103600083015261261481612223565b9050919050565b6000602082019050818103600083015261263481612246565b9050919050565b60006020820190508181036000830152612654816122d2565b9050919050565b60006020820190508181036000830152612674816122f5565b9050919050565b6000602082019050818103600083015261269481612318565b9050919050565b600060208201905081810360008301526126b48161233b565b9050919050565b600060208201905081810360008301526126d48161235e565b9050919050565b600060208201905081810360008301526126f481612381565b9050919050565b60006020820190508181036000830152612714816123a4565b9050919050565b600060208201905061273060008301846123ea565b92915050565b6000612740612751565b905061274c82826129fd565b919050565b6000604051905090565b600067ffffffffffffffff82111561277657612775612b35565b5b61277f82612b64565b9050602081019050919050565b600067ffffffffffffffff8211156127a7576127a6612b35565b5b6127b082612b64565b9050602081019050919050565b600081519050919050565b600081519050919050565b600082825260208201905092915050565b600082825260208201905092915050565b600081905092915050565b600061280b8261297f565b91506128168361297f565b9250827fffffffffffffffffffffffffffffffffffffffffffffffffffffffffffffffff0382111561284b5761284a612aa8565b5b828201905092915050565b60006128618261297f565b915061286c8361297f565b92508261287c5761287b612ad7565b5b828204905092915050565b60006128928261297f565b915061289d8361297f565b9250817fffffffffffffffffffffffffffffffffffffffffffffffffffffffffffffffff04831182151516156128d6576128d5612aa8565b5b828202905092915050565b60006128ec8261297f565b91506128f78361297f565b92508282101561290a57612909612aa8565b5b828203905092915050565b60006129208261295f565b9050919050565b60008115159050919050565b60007fffffffff0000000000000000000000000000000000000000000000000000000082169050919050565b600073ffffffffffffffffffffffffffffffffffffffff82169050919050565b6000819050919050565b82818337600083830152505050565b60005b838110156129b657808201518184015260208101905061299b565b838111156129c5576000848401525b50505050565b600060028204905060018216806129e357607f821691505b602082108114156129f7576129f6612b06565b5b50919050565b612a0682612b64565b810181811067ffffffffffffffff82111715612a2557612a24612b35565b5b80604052505050565b6000612a398261297f565b91507fffffffffffffffffffffffffffffffffffffffffffffffffffffffffffffffff821415612a6c57612a6b612aa8565b5b600182019050919050565b6000612a828261297f565b9150612a8d8361297f565b925082612a9d57612a9c612ad7565b5b828206905092915050565b7f4e487b7100000000000000000000000000000000000000000000000000000000600052601160045260246000fd5b7f4e487b7100000000000000000000000000000000000000000000000000000000600052601260045260246000fd5b7f4e487b7100000000000000000000000000000000000000000000000000000000600052602260045260246000fd5b7f4e487b7100000000000000000000000000000000000000000000000000000000600052604160045260246000fd5b6000601f19601f8301169050919050565b7f4552433732313a207472616e7366657220746f206e6f6e20455243373231526560008201527f63656976657220696d706c656d656e7465720000000000000000000000000000602082015250565b7f4552433732313a20746f6b656e20616c7265616479206d696e74656400000000600082015250565b7f4552433732313a207472616e7366657220746f20746865207a65726f2061646460008201527f7265737300000000000000000000000000000000000000000000000000000000602082015250565b7f4552433732313a20617070726f766520746f2063616c6c657200000000000000600082015250565b7f4552433732313a206f70657261746f7220717565727920666f72206e6f6e657860008201527f697374656e7420746f6b656e0000000000000000000000000000000000000000602082015250565b7f4552433732313a20617070726f76652063616c6c6572206973206e6f74206f7760008201527f6e6572206e6f7220617070726f76656420666f7220616c6c0000000000000000602082015250565b7f4552433732313a2062616c616e636520717565727920666f7220746865207a6560008201527f726f206164647265737300000000000000000000000000000000000000000000602082015250565b7f4552433732313a206f776e657220717565727920666f72206e6f6e657869737460008201527f656e7420746f6b656e0000000000000000000000000000000000000000000000602082015250565b7f45524337323155524953746f726167653a2055524920736574206f66206e6f6e60008201527f6578697374656e7420746f6b656e000000000000000000000000000000000000602082015250565b7f2261747472696275746573223a2022222c2022696d616765223a202200000000600082015250565b7f226465736372697074696f6e223a2022416e204e4654206261736564206f6e2060008201527f53564721222c0000000000000000000000000000000000000000000000000000602082015250565b7f7b226e616d65223a2022535647204e4654222c00000000000000000000000000600082015250565b7f4552433732313a206d696e7420746f20746865207a65726f2061646472657373600082015250565b7f45524337323155524953746f726167653a2055524920717565727920666f722060008201527f6e6f6e6578697374656e7420746f6b656e000000000000000000000000000000602082015250565b7f4552433732313a20617070726f76656420717565727920666f72206e6f6e657860008201527f697374656e7420746f6b656e0000000000000000000000000000000000000000602082015250565b7f4552433732313a207472616e73666572206f6620746f6b656e2074686174206960008201527f73206e6f74206f776e0000000000000000000000000000000000000000000000602082015250565b7f4552433732314d657461646174613a2055524920717565727920666f72206e6f60008201527f6e6578697374656e7420746f6b656e0000000000000000000000000000000000602082015250565b7f4552433732313a20617070726f76616c20746f2063757272656e74206f776e6560008201527f7200000000000000000000000000000000000000000000000000000000000000602082015250565b7f4552433732313a207472616e736665722063616c6c6572206973206e6f74206f60008201527f776e6572206e6f7220617070726f766564000000000000000000000000000000602082015250565b7f227d200000000000000000000000000000000000000000000000000000000000600082015250565b6130c681612915565b81146130d157600080fd5b50565b6130dd81612927565b81146130e857600080fd5b50565b6130f481612933565b81146130ff57600080fd5b50565b61310b8161297f565b811461311657600080fd5b5056fe4142434445464748494a4b4c4d4e4f505152535455565758595a6162636465666768696a6b6c6d6e6f707172737475767778797a303132333435363738392b2fa264697066735822122036903935d10ce55a36c6e8599fbc4ee0d8d2d52d8a4de9d147c55e3ec1d4cfc664736f6c63430008040033",
  "devdoc": {
    "kind": "dev",
    "methods": {
      "approve(address,uint256)": {
        "details": "See {IERC721-approve}."
      },
      "balanceOf(address)": {
        "details": "See {IERC721-balanceOf}."
      },
      "getApproved(uint256)": {
        "details": "See {IERC721-getApproved}."
      },
      "isApprovedForAll(address,address)": {
        "details": "See {IERC721-isApprovedForAll}."
      },
      "name()": {
        "details": "See {IERC721Metadata-name}."
      },
      "ownerOf(uint256)": {
        "details": "See {IERC721-ownerOf}."
      },
      "safeTransferFrom(address,address,uint256)": {
        "details": "See {IERC721-safeTransferFrom}."
      },
      "safeTransferFrom(address,address,uint256,bytes)": {
        "details": "See {IERC721-safeTransferFrom}."
      },
      "setApprovalForAll(address,bool)": {
        "details": "See {IERC721-setApprovalForAll}."
      },
      "supportsInterface(bytes4)": {
        "details": "See {IERC165-supportsInterface}."
      },
      "symbol()": {
        "details": "See {IERC721Metadata-symbol}."
      },
      "tokenURI(uint256)": {
        "details": "See {IERC721Metadata-tokenURI}."
      },
      "transferFrom(address,address,uint256)": {
        "details": "See {IERC721-transferFrom}."
      }
    },
    "version": 1
  },
  "userdoc": {
    "kind": "user",
    "methods": {},
    "version": 1
  },
  "storageLayout": {
    "storage": [
      {
        "astId": 25,
        "contract": "contracts/SVGNFT.sol:SVGNFT",
        "label": "_name",
        "offset": 0,
        "slot": "0",
        "type": "t_string_storage"
      },
      {
        "astId": 27,
        "contract": "contracts/SVGNFT.sol:SVGNFT",
        "label": "_symbol",
        "offset": 0,
        "slot": "1",
        "type": "t_string_storage"
      },
      {
        "astId": 31,
        "contract": "contracts/SVGNFT.sol:SVGNFT",
        "label": "_owners",
        "offset": 0,
        "slot": "2",
        "type": "t_mapping(t_uint256,t_address)"
      },
      {
        "astId": 35,
        "contract": "contracts/SVGNFT.sol:SVGNFT",
        "label": "_balances",
        "offset": 0,
        "slot": "3",
        "type": "t_mapping(t_address,t_uint256)"
      },
      {
        "astId": 39,
        "contract": "contracts/SVGNFT.sol:SVGNFT",
        "label": "_tokenApprovals",
        "offset": 0,
        "slot": "4",
        "type": "t_mapping(t_uint256,t_address)"
      },
      {
        "astId": 45,
        "contract": "contracts/SVGNFT.sol:SVGNFT",
        "label": "_operatorApprovals",
        "offset": 0,
        "slot": "5",
        "type": "t_mapping(t_address,t_mapping(t_address,t_bool))"
      },
      {
        "astId": 962,
        "contract": "contracts/SVGNFT.sol:SVGNFT",
        "label": "_tokenURIs",
        "offset": 0,
        "slot": "6",
        "type": "t_mapping(t_uint256,t_string_storage)"
      },
      {
        "astId": 1871,
        "contract": "contracts/SVGNFT.sol:SVGNFT",
        "label": "_tokenIdCounter",
        "offset": 0,
        "slot": "7",
        "type": "t_struct(Counter)1429_storage"
      }
    ],
    "types": {
      "t_address": {
        "encoding": "inplace",
        "label": "address",
        "numberOfBytes": "20"
      },
      "t_bool": {
        "encoding": "inplace",
        "label": "bool",
        "numberOfBytes": "1"
      },
      "t_mapping(t_address,t_bool)": {
        "encoding": "mapping",
        "key": "t_address",
        "label": "mapping(address => bool)",
        "numberOfBytes": "32",
        "value": "t_bool"
      },
      "t_mapping(t_address,t_mapping(t_address,t_bool))": {
        "encoding": "mapping",
        "key": "t_address",
        "label": "mapping(address => mapping(address => bool))",
        "numberOfBytes": "32",
        "value": "t_mapping(t_address,t_bool)"
      },
      "t_mapping(t_address,t_uint256)": {
        "encoding": "mapping",
        "key": "t_address",
        "label": "mapping(address => uint256)",
        "numberOfBytes": "32",
        "value": "t_uint256"
      },
      "t_mapping(t_uint256,t_address)": {
        "encoding": "mapping",
        "key": "t_uint256",
        "label": "mapping(uint256 => address)",
        "numberOfBytes": "32",
        "value": "t_address"
      },
      "t_mapping(t_uint256,t_string_storage)": {
        "encoding": "mapping",
        "key": "t_uint256",
        "label": "mapping(uint256 => string)",
        "numberOfBytes": "32",
        "value": "t_string_storage"
      },
      "t_string_storage": {
        "encoding": "bytes",
        "label": "string",
        "numberOfBytes": "32"
      },
      "t_struct(Counter)1429_storage": {
        "encoding": "inplace",
        "label": "struct Counters.Counter",
        "members": [
          {
            "astId": 1428,
            "contract": "contracts/SVGNFT.sol:SVGNFT",
            "label": "_value",
            "offset": 0,
            "slot": "0",
            "type": "t_uint256"
          }
        ],
        "numberOfBytes": "32"
      },
      "t_uint256": {
        "encoding": "inplace",
        "label": "uint256",
        "numberOfBytes": "32"
      }
    }
  }
}